:020000022000DC
:106000000000042061620200B9620200BB6202006B
:10601000BD620200BF620200C16202000000000017
:10602000000000000000000000000000C362020049
:10603000C562020000000000C7620200C9620200DF
:106040004D850200CF6202000D8A0200D362020079
:10605000D5620200D762020069880200DB6202009A
:10606000DD620200DF620200E1620200E362020020
:10607000E5620200E7620200E9620200EB620200F0
:10608000ED620200BD700200F1620200F3620200E4
:1060900059710200F7620200EDAF0200FB620200DC
:1060A000FD620200FF62020001630200036302005E
:1060B0000563020007630200CB620200CB620200AC
:1060C000096302000B6302000D6302000F6302000C
:1060D00011630200136302001563020017630200DC
:1060E000196302001B6302001D630200CB62020001
:1060F000CB62020021630200CB6202001F63020038
:10610000364937480A1A02D0072291438D4635494D
:1061100035480A1A06D00722914381F309880222E2
:1061200082F3148831483249324A00F045F8324847
:106130003249334A00F040F832483349334A00F0DC
:106140003BF833483349344A00F036F83348344991
:10615000344A00F031F834483449354A00F02CF81C
:1061600034483549354A00F027F83548354900228A
:1061700000F02DF834483549002200F028F8344862
:106180003449091A082903DB002202600430016047
:10619000314A90471F482049884205D002680430A0
:1061A00003B4904703BCF7E700208646EC46002086
:1061B00000212A4A9047FEE7884207D0521A05D0AC
:1061C000037801300B700131013AF9D170478842F0
:1061D00002D002700130FAE770470000000004208E
:1061E00000E003200000042000000420E4CF0200AF
:1061F0001C2A0020282D00202463020024630200B2
:106200003CBE0200E4CF02001C2A00201C2A002011
:106210005CBF02005CBF02005CBF02005CBF02000A
:106220005CBF02005CBF02005CBF02005CBF0200FA
:10623000E4CF0200F0D20200282D0020282D0020FB
:10624000282D0020084000200840002008400020A1
:10625000084000200860002085620200259E0200A0
:106260000F484FF00701884385460E4880470E4887
:10627000016841F470010160BFF34F8FBFF36F8F6E
:10628000FFF73EBF09480A490A4A884207D0521A16
:1062900005D0037801300B700131013AF9D1704714
:1062A00000000420A97F020088ED00E020BF02006A
:1062B000E02900201C2A0020FEE7FEE7FEE7FEE7BB
:1062C000FEE7FEE7FEE7FEE7FEE7FEE7FEE7FEE7A6
:1062D000FEE7FEE7FEE7FEE7FEE7FEE7FEE7FEE796
:1062E000FEE7FEE7FEE7FEE7FEE7FEE7FEE7FEE786
:1062F000FEE7FEE7FEE7FEE7FEE7FEE7FEE7FEE776
:10630000FEE7FEE7FEE7FEE7FEE7FEE7FEE7FEE765
:10631000FEE7FEE7FEE7FEE7FEE7FEE7FEE7FEE755
:04632000FEE700BFD5
:106324007047000007B5044B0093044A402300F073
:1063340032F803B05DF804FB45630200292D002008
:106344002DE9F84389461446B2B10F4B0F4E03258D
:10635400002743F00108224609EB0701002003F05F
:106364007DFE0744241A48B933782BB14FF47A40A0
:10637400C047013D02D13570BDE8F8830123337075
:10638400002CE8D1F8E700BF60BF0200282D0020F0
:10639400704703F097BEF0B595B01C461646084604
:1063A4000D4601F0A9FC1A9B0D93CDE90864002465
:1063B4002346082205A928460A948DF82C400C94FB
:1063C40001F0D6FC079B0293BDF81830ADF80C30F1
:1063D400BDF81A30ADF80E309DF814308DF8114028
:1063E40003F00302012A1DD1BDF81440059EC3F336
:1063F400C203C4F383148DF81030A20008230EA93D
:10640400284601F0B5FCC6F3952608AB0093224656
:1064140002AB0EA9304600F077FB284601F070FC71
:1064240015B0F0BD022AF8D1BDF81640C3F3C2037B
:10643400A4098DF810300827082C264628BF082602
:106444003B4632460EA9284601F092FCA41B08AB39
:1064540002AA31460EA8374400F0BAFB002CEBD157
:10646400DBE7000010B5054CFFF793FF042120463D
:1064740000F0BAFA0123637210BD00BF1C2A002089
:10648400037813F0030F03F0040202D012B910468C
:106494007047B2B103F00303012B03D0022B09D0E0
:1064A400012070470A6800880232C0F38310024456
:1064B4000A60F5E70B684288023303EB92130B6022
:1064C400EEE70B684288013303EB92130288F4E78A
:1064D4002DE9F04F89B00546861C08A8484C019266
:1064E40000230F4600F8113D01F032F923683B60A8
:1064F400D4E901231344226801339B1A04F21C4794
:1065040004F5836A04F21448B3421AD3019A0023AF
:10651400002A6DD0012262F3010343F0040365F302
:1065240089132168A2689DF80F000A4003320E44C3
:1065340044F82230266001F02FF9012009B0BDE8AB
:10654400F08F0121384601F05DF9504601F070F9F1
:10655400404601F06DF90DF120096068D4F808B0E7
:1065640049F8100D00EA0B00033004EB80004946A3
:10657400FFF786FF049BB0B90BEA030204EB820227
:10658400D16805919A1C013303EA0B0B04EB8B0CC5
:1065940001F00303012B0492DCF80CB020D0022B91
:1065A40004D083460BE00BEA0300DDE7BDF81630A8
:1065B4009B0903334FEA1B4B02EB930304934046BE
:1065C40001F039F908B1049B63605946384601F07B
:1065D40019F9D4E901231344226801339B1A93E780
:1065E400BDF81430C3F383134FEA1B4B1344E5E7A0
:1065F400022262F3010343F0040365F39F5390E71F
:106604003C2E002008B50E4B0E48FF229A60002253
:10661400C3F81824C3E90022C3F8142483F82024FF
:1066240001F023FB38B9084A084B09499B1ADB08D7
:1066340002469A4200D108BD21F822200132F8E72F
:106644003C2E0020C0BE020048BE0200C0BE0200B4
:10665400E029002030B50B4C79B10B4A0B49121BD1
:10666400D20800239A4201D1002030BD01EB8305FA
:106674006D88854202D00133F4E7034654F83300B1
:10668400F3E700BF48BE0200C0BE0200E0290020BC
:10669400094B013903EBC000032909D8DFE801F0F5
:1066A4000A02040604207047007970474079704755
:1066B400002070470220704748BE0200034BD3E914
:1066C4000030C31A58425841704700BF3C2E002086
:1066D4002DE9F04387B0FFF7F1FF0746002840F0AB
:1066E400F5807B4DC5F81804BFF34F8F6868AC681C
:1066F4000DF1180848F8100D2040033005EB800018
:106704004146FFF7BDFE029B064600285FD104EA1E
:106714000302991C013305EB8202234005EB83033A
:10672400D268DB68049302F00303022B0392029104
:1067340062D1BDF80E3067484FEA9318B8F1500F94
:10674400C14628BF4FF0500969F38F1309F10801BE
:10675400ADF80E3001F0A1FA0746002800F0A4803D
:1067640001F0CAFA334603A90822384601F0D7FAE1
:10677400029924EA01060136B600B14535D95FFA1B
:1067840089F97EB3F6B2A9EB0609214003315FFA19
:1067940089F4B146504E05EB810108234A46384638
:1067A40001F0BDFA36B109F10803224631463846F4
:1067B40001F0B5FA029B08F1030803EB9803029376
:1067C400D5F81834002B4AD1D5F8104458E02A687B
:1067D4009A4204D86A60384607B0BDE8F08304EAF8
:1067E40003008AE73C493446D7E7214003310823B4
:1067F4004A4605EB8101DAE7012B55D1BDF80C308F
:106804003448C3F38311062928BF062161F3891391
:1068140002318900ADF80C3001F03FFA0746002838
:1068240042D001F069FA3346082203A9384601F040
:1068340076FABDF80C20C2F38312B31C96424FEAD9
:106844008303BDD202994A1C21400331029205EB15
:1068540081010422384601F062FA0136E9E738463C
:1068640001F04EFAFFF72AFF80F00100C7B2B2E749
:10687400637A23B1236839461B68204698476468C5
:10688400002CF5D1384601F03BFA06A800F8114D6A
:1068940000F05EFFD5F818340BB9029B6B609DF8CD
:1068A400070000F079FFDDE7D5F8104444B90B4B3D
:1068B4000B491888000440F0020000F06BF8D1E79F
:1068C400236820469B6898476468EFE7002782E7BF
:1068D4003C2E0020C0BE0200482E0020F4290020D7
:1068E40074BF02002DE9F74F284C80460F469246AC
:1068F40001A9012218469B46D4F80890FFF7E8FD49
:1069040088B3019D0026A91C5E4506EB010234D123
:1069140000211F4800F056FF80F310006A1C02EAB1
:10692400090204EB8202000405EA0903033340EA86
:106934001840D06014F8232068F3C50204F823201B
:1069440034F8232066F3891224F8232054F82320F2
:10695400012167F39F2244F8232061F301026FF3BE
:10696400820204F8232094F820341BB1FFF7B0FE10
:106974000028FBD103B0BDE8F08F09EA020204EB62
:1069840082025AF82630D3600136BDE73C2E00203F
:106994005832002000231A46FFF7A4BF13B502ACF7
:1069A400012344F8042D2246FFF79CFF02B010BDDA
:1069B40007B5CDE9002302236A46FFF793FF03B02E
:1069C4005DF804FB7FB5CDE90023089B0293099B86
:1069D40003930A9B04930B9B05936A460623FFF7D4
:1069E40081FF07B05DF804FB0F4A30B5D2F81044BC
:1069F4000023214641B90372D2F810444CB9C2F8BD
:106A040010044160184630BD0D7A9D4205D0496896
:106A1400F0E7626842606060F4E701330A2BE8D172
:106A24004FF0FF33EEE700BF3C2E0020084A38B594
:106A34000123D2F8104482F820341D4604B938BD2D
:106A44002368657220465B6898476468F6E700BF70
:106A54003C2E0020037A052B10B50C460FD0437A48
:106A640023B1084A0849204600F046FF074920465A
:106A740000F042FF2046BDE8104000F032BF002A7B
:106A8400F8D0F3E7CFBF020061C70200D3C702000A
:106A9400C38873B504460D4633B1144A00921449B1
:106AA400144A284600F028FF217A05291CD0637A6D
:106AB4004BB1A088FFF7ECFD0F4B104953F8202091
:106AC400284600F019FF227A0D4BA08853F8226063
:106AD4000021FFF7BFFD0B4903463246284602B0AA
:106AE400BDE8704000F008BF02B070BDCFBF020027
:106AF400DCBF0200D4BF02009CBF020061C70200D9
:106B040000C00200F4BF02002DE9F04385B01F4627
:106B14000C9D002306460C46904695F80C902B736A
:106B240029463846FFF7B4FFB8F1060F09D8DFE865
:106B340008F00412181F283340003146284600F09C
:106B4400DBFE002229463846FFF784FF85F80C90C7
:106B540005B0BDE8F08322683146284600F0CCFE3B
:106B6400EFE7D4E900233146284600F0C5FEE8E704
:106B7400A36800933146D4E90023284600F0BCFE04
:106B8400DFE7E3680193A36800933146D4E9002367
:106B9400284600F0B1FED4E723690293E368019329
:106BA400A36800933146D4E90023284600F0A4FEEC
:106BB400C7E76369039323690293E3680193A368B6
:106BC40000933146D4E90023284600F095FEB8E747
:106BD40008292DE9F84F80460E4617461C4636D83C
:106BE400002593F80C901D7319461046FFF750FFCB
:106BF400DFF87CA0DFF87CB0AE422AD918F8052073
:106C04005946204600F078FE0135082DF4D1164986
:106C1400DFF864B0204600F06FFE0025AE421DD9B7
:106C240018F805A0504604F03DFC002814BF524655
:106C34002E225946204600F05FFE0135082DEDD185
:106C4400012221463846FFF705FF84F80C90BDE881
:106C5400F88F5146204600F04FFED5E70349204601
:106C640000F04AFEE9E700BFCABF0200C8BF020045
:106C7400C6BF0200C0BF0200CCBF02002DE9F04F26
:106C84003B4F89B000263B4B1B78F5B2AB4202D890
:106C940009B0BDE8F08F384B196811F835000124AC
:106CA400A0F12002C0F1200304FA02F924FA03F34C
:106CB40049EA0309D7E9002304FA00F8CDE90423DB
:106CC40002EA080203EA0903134301EBC50B4CD0A3
:106CD400DDE9042322EA080223EA0903C7E90023C1
:106CE400079101F0AFFD0799844611F83500A0F132
:106CF4002002C0F1200324FA03F304FA02F21A4337
:106D040004FA00F300931D4B0192DDE90045D3E939
:106D1400002314401D4022462B465FFA8CF40025C4
:106D2400CDE90445049CA0F12005AC400394049CE7
:106D3400C0F1200124FA01F1039C0C43049903944B
:106D440081400291DDE90245AB4208BFA2420CD169
:106D54009BF801104B1E59425941A1EB0C02DBF880
:106D640004305142514103B1984701368BE700BFCB
:106D740090320020603200209832002088320020B7
:106D84002DE9F84F0646244800F0C0FB002841D105
:106D94000123A6F12001C6F1200203FA01FB23FA24
:106DA40002F203FA06FA1D4BD3E900014BEA020B87
:106DB40000EA0A0801EA0B0958EA09021F4623D12E
:106DC400304601F03FFD164BB8B1D3E9000140EA6B
:106DD4000A0441EA0B05C3E90045D7E900234BEA5D
:106DE4000305104B0C4819684AEA0204C7E9004538
:106DF4000022BDE8F84F00F045BBD3E9000120EACA
:106E04000A0421EA0B05E6E720EA0A0421EA0B0555
:106E1400C3E90045BDE8F88F6832002090320020B5
:106E24008832002064320020042A2DE9F34105460B
:106E34000C4616463AD901F02BFCD8B11C4B1D491F
:106E44001D601D4BDFF884801C701C4B00221E60EB
:106E54000023C1E900231A49C1E90023013CE4B23B
:106E640000260327FF2C0CD1164A1748002100F0F6
:106E7400F7FA03E001F0D4FB0028DFD002B0BDE84C
:106E8400F08123B205EBC30201A992788DF80520A5
:106E940015F833008DF8066042468DF8047001F051
:106EA40001FC013CE4B20028DCD0E7E70720E5E779
:106EB40098320020883200206032002064320020A2
:106EC40090320020816C020060C00200856D0200D7
:106ED40070B5084D084E00242B789C4201D3002045
:106EE40070BD3368012113F8340001F061FC0134F2
:106EF400F2E700BF60320020983200201FB5002165
:106F0400039001AA44F20100CDE9011100F004F854
:106F140005B05DF804FB000010B572B6FFF786FDFE
:106F2400FFF7D6FB0028FBD1104C11492088000440
:106F340040F00100FFF72EFD0E4B1B68DB0700D568
:106F440000BE20880C49000440F00200FFF722FD37
:106F5400BFF34F8F09490A4BCA6802F4E062134336
:106F6400CB60BFF34F8F00BFFDE700BFF4290020C3
:106F740064C00200F0ED00E070C0020000ED00E02B
:106F84000400FA0549B152B1531E1A4007D1826078
:106F940001608380C260104670470E20704709204C
:106FA400704710B58468C2688388121B934208D363
:106FB400C26813400268D154C3680133C36000201F
:106FC40010BD0420FCE78268C3689A420AD0826834
:106FD400838813400268D35C0B7083680133836039
:106FE4000020704705207047094A5378917801338F
:106FF400DBB2994208BF0023117899421FBF037086
:107004005078182303FB002014BF0430002070477D
:107014009C32002073B5054602A8002400F8014DF7
:107024000E4600F095FB0DF10600FFF7DDFF90B171
:1070340006700A4B9DF8062045605A709DF80700BB
:1070440000F0AAFB24B9064B4FF48012C3F80021C8
:10705400204602B070BD0424F0E700BF9C3200203B
:1070640000E100E0024B4FF43C6043F00103184799
:1070740080C0020038B50C4B0C4C4FF40032C3F8FE
:10708400802001254FF48033C4F84833C4F8083312
:107094006560FFF7E7FF064BA56000241C60FFF75F
:1070A400E1FF044B1C7038BD00E100E0001001401A
:1070B400B8330020A9330020F8B51F4B1F491B68C3
:1070C4000025C1F84051C1F84451C1F84851C1F8F4
:1070D4004C51C1F80051C1F804514BB3D1F80445E7
:1070E40017490968641A24F07F442F461A68A2429B
:1070F40009D8A41A15441A7CDE691AB11F74D3E99D
:1071040005209047AEB90F4B0F4A197813788B427C
:1071140005D10133DBB2022B08BF002313701278B0
:107124000A4B43F822500A4B4FF48012C3F8002153
:10713400F8BD3346DAE700BFBC330020001001403D
:10714400B8330020B4330020B5330020AC33002022
:1071540000E100E02DE9F74F9E4A9F491378097832
:107164009E4D99423CD00133DBB2022B08BF002371
:1071740013709B4912789B4B0F6853F822003B18FD
:1071840023F07F4300220B602B6816461446944676
:1071940013B942B12B6006E0196881420ED902B1DD
:1071A4002B60091A19604FF001082B68DFF83CA224
:1071B40000930027BEB9DFF83CB260E0401A0C44EB
:1071C400D968C3F800C0D3F81CE031B13A1922F0F1
:1071D4007F42C3E90121DE611E4601227346D7E7DF
:1071E4000026B046E1E73446F6697D4A63681268D2
:1071F400DFF804C2A068991A21F07F41614500F2CA
:10720400A58001442160012222742A680023C4E974
:107214000133E361002A40F0A2802C60CAE75A1CC3
:107224009BF80210D2B291428BF8002004BF0022D6
:107234008BF80020182202FB03B32A6819799C6892
:10724400022974D003297ED0012918D1217CB1B937
:10725400DA6862601A69A2605A699B69A361624B29
:10726400E2601B78002BC0D06160BEE79C4200F056
:1072740093809946DB69002BF8D1002323749BF893
:1072840000309BF801209A42C9D12B682FB9009A8B
:10729400934202D1B8F1000F43D0002B79D0D3F838
:1072A40000A0524D4E4BD5F804751C68DFF84C8194
:1072B4003E1B98F8003026F07F4603369BB94FF406
:1072C4008033C5F84433C5F80433494B4FF40032D6
:1072D4004FF00109C3F880211A60C5F80090FFF748
:1072E400C1FE88F80090B2452CBF5444A41924F080
:1072F4007F44C5F84045D5F80435DB1B23F07F43B4
:10730400E41B033324F07F44A3420AD9D5F804359F
:10731400C5F84035FFF7A6FE354B4FF40032C3F8ED
:107324000021314B00221A7003B0BDE8F08F1346E0
:107334009146A0E71174D2690123002AFAD1002BE7
:107344009DD02A609BE700231946F6E7D31A23F061
:107354007F43834234BFC31A0023236053E7216869
:107364001368994213D8591A1160E26155E7091A52
:10737400D8691A4638B1034618688842F7D3401AC8
:107384001860184613462160E061DC6112E7134679
:10739400F2E7FFF76FFEC4E74C450DD1D3692B60CC
:1073A40053B90F4801920121CAF8081003600E4B2B
:1073B4001970FFF757FE019AE1692368C9F81C1098
:1073C40011B1086803440B602B689A4218BF012767
:1073D40053E700BFB4330020B5330020BC33002092
:1073E400B8330020AC330020A83300200010014043
:1073F40000E100E09C320020FEFF7F00A933002062
:1074040008B5FFF737FE104B00200B2218809A7046
:107414000E4B18600E4B18700E4B18700E4B4FF439
:107424008012E021C3F8802183F814131A6002F15A
:107434008042A2F56F22C2F8080583F81113074BA6
:10744400D2F804251A6008BD9C320020BC33002009
:10745400B4330020B533002000E100E0B83300204D
:10746400074B9B784BB132B128B10368187C20B923
:1074740059745A617047072070470820704700BF4D
:107484009C3200202DE9F7431D4FBB7805460E467C
:1074940090469BB390B304292ED9436973B3437CBC
:1074A40002A80024012B00F8014D0CBF8946A14617
:1074B40000F04EF90DF10600FFF796FDD0B101235F
:1074C4000370104B4560D3F80435C0E90498C0E953
:1074D40002369DF806307B709DF8070000F05CF9D9
:1074E40024B9094B4FF48012C3F80021204603B09D
:1074F400BDE8F0830424EFE70724F7E70824F5E761
:107504009C3200200010014000E100E0064A92781D
:107514003AB130B1426922B1002202740221FFF76C
:1075240079BD0820704700BF9C3200200648074AF6
:1075340003780749D35C012213B1043001F0DEBEA5
:107544000C3001F0A3BC00BF282A00202C340020FA
:10755400E83300200648074A03780749D35C012230
:1075640013B1043001F07ABE0C3001F039BC00BF15
:10757400282A00202C340020E933002037B5057870
:10758400012D04D035D3022D28D003B030BD43687B
:107594001F4C19782046FFF704FD78B11D4B01906C
:1075A4008DF800501B6868469847A168E368A28874
:1075B4005B1A9A420ED3FFF7B9FFE6E7A268E368C5
:1075C4009A42F2D002AB134A03F8080D1268184627
:1075D4009047EAE7104B01221A70D6E7C36801937B
:1075E4008DF80050FFF7A2FF0A4B1B6868469847C6
:1075F400CBE70A490A48FFF7E6FC10B9FFF7AAFFF0
:10760400C3E702A8032300F8083D024B1B68EEE71A
:10761400C4330020C0330020D4330020E9330020D9
:10762400D8330020F0B51F46234B89B006461A60B4
:107634000C4600293DD08A8820480968FFF7A2FC3F
:10764400002834D1A289A1681D48FFF79BFC0028BB
:107654002DD11C4D0FCD6C460FC495E80F0084E866
:107664000F0073690693337C174A18488DF81C7011
:10767400003318BF01238DF81430737C002B14BF22
:107684000E2300238DF81530F3680293B368039337
:107694003368019369467368009300F0DFFE30B9E4
:1076A4000B4B18703368013301D0FFF73FFF09B06B
:1076B400F0BD0720FBE700BFC0330020C433002027
:1076C400D833002088C0020081750200282A0020D7
:1076D400D433002070B5084C014608482678FFF7DB
:1076E40072FC054636B100232370FFF71FFF08B173
:1076F400FFF704FC284670BDD4330020C4330020B7
:1077040010B501460E48FFF74CFC0446A8B90D48D5
:107714000D4A0378D35C63B1043001F0E3FD60B932
:107724000A490748FFF74FFC38B9BDE81040FFF796
:1077340011BF0C3001F09EFBF1E7204610BD00BFE5
:10774400D8330020282A00202C340020E9330020DC
:1077540070B5EFF3108672B60C4A946801239CB995
:1077640093600B4B0B4DD3F8801029401160C3F884
:107774008050D3F8841051604FF0FF32C3F8842056
:10778400047006B962B670BD0370FAE7EC330020EA
:1077940000E100E0FC06FFBD084B9A6810B55AB141
:1077A40050B9EFF3108272B605491C680C605C682E
:1077B4004C60986002B962B610BD00BFEC33002083
:1077C40000E100E050E8002F0B4640E8003C9CF04C
:1077D400000FF7D11046704750E8003F43EA01021A
:1077E40040E8002C9CF0000FF6D11046704750E89A
:1077F400002F02EA010340E8003C9CF0000FF6D1A0
:107804001046704750E8003F03EB010240E8002CAB
:107814009CF0000FF6D11046704750E8003FA3EBF0
:10782400010240E8002C9CF0000FF6D1104670478E
:107834000121FFF7D1BF0021FFF7D9BF10B590B1E7
:10784400D0E9012301689B1ADBB20A60013BDBB279
:10785400FF2B026802D10020107110BD11684C1C6E
:1078640014600B70F2E70E20F7E737B5054602A85F
:10787400002400F8014DFFF76BFF2A686B6811685C
:1078840099420ED9481E106011F8014CEB68A98A80
:1078940001FB0434AB6811791B1ADBB2994238BF7F
:1078A40013719DF80700FFF777FF204603B030BD42
:1078B40037B5054602A8002300F8013D0C46FFF742
:1078C40047FF2A681368591C1160E968641AA98A79
:1078D400B4FBF1F41C709DF80700FFF75DFF03B0E3
:1078E40030BD826810B504462AB143690168006955
:1078F40098470023A36010BD0EB403B5039929B1C2
:1079040002AA04AB42F8043D00F06AF802B05DF844
:1079140004EB03B07047826830B40468551C85607A
:10792400A154D0E901329A4202D330BCFFF7D9BF47
:1079340030BC70472DE9F84F9946DDE90A431746F4
:10794400824688460A460126BA420FD24E4538BFBF
:107954004E4613F0010B01D164B900240125B9F19D
:10796400010F1AD909F1FF397D43F8E7B2FBF7F2A9
:107974000136E9E79B070ED5B9F1000F0CBF30259E
:107984002025A642EAD2013C29465046FFF7C3FF10
:10799400002CF6D1E1E72025F3E7B8FBF5F39F428D
:1079A400E2D9DFF83890B8FBF5F3504619F8031024
:1079B40005FB1388FFF7AFFFB5FBF7F5002DF2D1F8
:1079C400BBF1000F02D00CB1A64201D3BDE8F88F81
:1079D40020215046013CFFF79EFFF4E7A8C00200B7
:1079E4002DE9F74F054690460E46002900F03A81EE
:1079F40016F8011B002958D0252940F0D180002712
:107A040002E047F001071646324612F8013B2D2BDF
:107A1400F7D0302B04D02B2B05D147F00407F2E725
:107A240047F00207EFE700242A2B06F101021BD1DD
:107A3400D8F80030191D1B68C8F800101C441646FD
:107A440033782E2B1CD101364FF0000A314611F841
:107A5400012BA2F13000092814D80A2303FB0A23BE
:107A6400A3F1300A0E46F1E712F8013CA3F130010C
:107A74000929E5D80A2101FB0434303C1646D3E732
:107A84004FF0000A324612F8011B01F0FB0068288F
:107A94001646F8D0692916D054D8582970D00ED873
:107AA40025297DD03378002BA2D12B7B002B00F02D
:107AB400D980284603B0BDE8F04FFFF712BF632911
:107AC40068D06429EED1D8F80020D2F80090111DB6
:107AD40089EAE972C8F80010A2EBE9724FF0010BD1
:107AE400092A61DCD34538BFD3462CB1B9F1000F64
:107AF40001DB790700D5013CBA0702D5BAF1000FC2
:107B040004D0FB0702D4002C54D10024B9F1000F97
:107B140058DAC9F100092D212846FFF7FCFE07F0C9
:107B24000302022A05D1BAF1000F02D1002C4DD173
:107B34000024CDE9004753460A2249462846FFF768
:107B4400F9FEAFE7732954D016D87029AAD1D8F812
:107B540000301A1DC8F80020302128461C68FFF7A1
:107B6400DAFE78212846FFF7D6FE00220823CDE965
:107B7400003221461022E1E775292FD0782991D1CE
:107B8400D8F800100A1DC8F80020CDE90047534674
:107B940010222CE0D8F800301A1D1978C8F80020FB
:107BA4002846FFF7B8FE7DE70A230BF1010B92FB91
:107BB400F3F295E7A345A9D220212846013CFFF71B
:107BC400AAFEA0E77807AAD52B21A5E7A345B0D242
:107BD40030212846013CFFF79EFEA7E7D8F80010A5
:107BE400CDE900470A1DC8F8002053460A22096857
:107BF400A4E7D8F800301A1DC8F80020F907D3F814
:107C0400009012D54F46A7EB090B17F8011B41B999
:107C1400A345BFF447AF20212846013CFFF77BFE74
:107C2400F6E72846FFF777FEEDE7B9F1000F17D026
:107C3400484603F036FD0746BC4200D954B909F161
:107C4400FF3919F8011F00293FF42CAF2846FFF72C
:107C540062FEF6E720212846013CFFF75CFEEBE7D5
:107C64004F46E9E703B0BDE8F08FFFF7E7BDF8B58D
:107C740046790146721E0546002393422D6803D3BC
:107C84000024A64202D8F8BD0133F6E70F6828465F
:107C9400FFF70EFE01343946F3E72DE9F843868AEF
:107CA400CD1C0746FFF7E1FD043E35440446B5FB11
:107CB400F6F5F0B14FF48073EDB28380C680013DD8
:107CC400076081464FF00008A84512D23846FFF7F6
:107CD400CCFD064648B163790133637108F10108AC
:107CE400C9F8000007608146EEE72046FFF7BFFFB2
:107CF40034462046BDE8F88301210430FFF782BDF5
:107D040010B5012104460430FFF787FD10F0FF0F82
:107D140004D12046BDE81040FFF7A9BF10BD2DE9EE
:107D2400F843C7880546181D8846B0FBF7F4164685
:107D340007FB14003CB9A7EB0009B14528BFB146C5
:107D440026B9BDE8F8832D68013CF3E70430A6EBBF
:107D540009064A4608EB0401284403F024FCB74210
:107D64004C442D68B9464FF0000028BFB146E7E700
:107D74002DE9F843C7888846191D0546B1FBF7F479
:107D8400164607FB14113CB9A7EB0109B14528BFFE
:107D9400B14626B9BDE8F8832D68013CF3E7043108
:107DA4002944A6EB09064A4608EB040003F0FBFB52
:107DB400B7424C442D68B9464FF0000128BFB14684
:107DC400E7E733DF704741DF70470000064B10B52B
:107DD40000241C70054B1C60BFF35F8F04490548E9
:107DE40000F08AF8204610BD01340020043400203D
:107DF400B8C00200F833002007B502A8002300F839
:107E0400013DFFF7A5FCF1EE103A23F09F03E1EEEC
:107E1400103ABFF35F8F0A4B4022C3F884219DF8C8
:107E24000700FFF7B9FC03F0C5F820B1FFF7CBFF5B
:107E340003B05DF804FB20BF40BF20BFF8E700BFDC
:107E440000E100E070B5264C054601212046FFF70D
:107E5400B9FCBFF35F8F264638B9042D0AD0214BF5
:107E64001A781AB1BFF35F8F206070BD1E4A157077
:107E740001221A701D4C1C4D6368BBB9FEF7D6FD78
:107E8400FEF726FC0028FBD1174B1B78023B012B85
:107E940014D8BFF34F8F1649164BCA6802F4E06238
:107EA4001343CB60BFF34F8F00BFFDE71B682878F7
:107EB400984788B1204600F029F8DDE703F07AF806
:107EC40008B1FFF77EFF4FF080430122C3F800257D
:107ED400BFF34F8F20BFFDE7BFF35F8F3060C4E770
:107EE400043400200134002000340020F833002042
:107EF40000ED00E00400FA050B684A684360934211
:107F040008BF0023016008BF43607047436843B162
:107F14000268916852680B449342436004BF002393
:107F2400436070470D4930B5A1F594720225914222
:107F340001D800200EE08B1ADB1093FBF5F302EB63
:107F4400C30452F83330834205D802D204F1080244
:107F5400EDE7606830BD2146E9E700BF08C20200D2
:107F640008B5FFF7DFFF024B002808BF184608BD1D
:107F7400CDC0020010B50446C0B2FFF7C1FB2046D5
:107F840010BD0000054B1B68082B01BF044B18688B
:107F9400B0FA80F0400918BF00207047300100108B
:107FA4003401001008B54FF080430022C3F80C21BF
:107FB400C3F81021C3F838254FF0805203F540432D
:107FC400D2F80414C3F82015D2F80814C3F8241501
:107FD400D2F80C14C3F82815D2F81014C3F82C15D1
:107FE400D2F81414C3F83015D2F81814C3F83415A1
:107FF400D2F81C14C3F84015D2F82014C3F8441561
:10800400D2F82414C3F84815D2F82814C3F84C1530
:10801400D2F82C14C3F85015D2F83014C3F8541500
:10802400D2F83414C3F86015D2F83814C3F86415C0
:10803400D2F83C14C3F86815D2F84014C3F86C1590
:10804400D2F84424C3F87025FFF79CFF10B1384BD5
:10805400384A1A60FFF796FF18B1374BFB22C3F872
:108064001825FFF78FFF48B13449354B0A681B6860
:1080740022F00F0203F00F0313430B60FFF782FF9C
:1080840018B1304B4FF400721A604FF08043D3F8AC
:108094000024D20744BF6FF00102C3F800242A4A27
:1080A400D2F8883043F47003C2F88830BFF34F8F9E
:1080B400BFF36F8F4FF01023D3F80022002A03DBA5
:1080C400D3F80432002B2FDA204B0122C3F8042505
:1080D400D3F80024002AFBD04FF010221221C2F85A
:1080E4000012D3F80024002AFBD04FF010231222F0
:1080F400C3F80422154B1A46D3F800140029FBD008
:108104000021C3F80415D2F80034002BFBD0BFF3D0
:108114004F8F0D490E4BCA6802F4E0621343CB60E3
:10812400BFF34F8F00BFFDE70A4B0B4A1A6008BD2F
:108134008C5600404881030000F00040E40E0040EB
:10814400580200104096024000ED00E000E00140BB
:108154000400FA053C2A00200090D003074B1B5C66
:108164001F2B8ABF064A4FF0A04203F01F03D2F828
:108174000405D840C04300F001007047C6C50200A2
:1081840000030050074B1B5C1F2B86BF03F01F032B
:1081940005494FF0A041012202FA03F3C1F80C355E
:1081A400704700BFC6C5020000030050074B1B5CAC
:1081B4001F2B86BF03F01F0305494FF0A041012286
:1081C40002FA03F3C1F80835704700BFC6C50200C0
:1081D4000003005008B50020FFF7E8FF0120FFF777
:1081E400E5FF0220FFF7E2FF0320BDE80840FFF7A8
:1081F400DDBF08B50020FFF7C5FF0120FFF7C2FF70
:108204000220FFF7BFFF0320BDE80840FFF7BABF15
:108214000A4B185C1F288ABF094B4FF0A04300F09B
:108224001F00D3F804250121814021EA02000A40FD
:10823400C3F80805C3F80C25704700BFC6C5020083
:1082440000030050074B1B5C1F2B8ABF064A4FF0EC
:10825400A04203F01F03D2F81005D840C04300F039
:1082640001007047C2C50200000300500B2809D06A
:108274000C2809D0182809D019280CBF03204FF066
:10828400FF3070470020704701207047022070477C
:10829400014B185C704700BFC2C50200C20710B58D
:1082A40004460CD54FF0A0430322C3F83427C3F887
:1082B4003827C3F83C27C3F84027FFF78BFFA307F1
:1082C4000AD54FF0A0430C22C3F82C27C3F830275B
:1082D400C3F86027C3F8642710BD000038B5084C04
:1082E40004F108030546002818BF1C4623682BB177
:1082F4001A6822605B6828469847F7E738BD00BFD4
:108304001034002020B9054B01225A70FFF7E6BF54
:10831400012802D1014A9070F8E770470834002020
:1083240020B9034B01225A70FFF7D8BF704700BF32
:108334000834002038B50B4C237883B90A486360AD
:10834400A3602361E36000F0D1F8054602F032FE39
:1083540008B900F0D9F801232370284638BD8525D3
:10836400FBE700BF083400200983020037B502A8E8
:108374000023094C00F8013DFFF7EAF9E368013BEB
:10838400E360E56815B900F0D3F8A5709DF807001F
:10839400FFF702FA03B030BD08340020012813B5FA
:1083A40009D003D303281BD002B010BD0F4B012208
:1083B400C3F88020F8E702A800230D4C00F8013D23
:1083C400FFF7C6F923780BB9FFF7B4FFE3689DF80C
:1083D40007000133E3600123A370FFF7DDF9E3E74E
:1083E40000F092F8FFF7C2FFDEE700BF00E100E013
:1083F400083400201FB503788DF8003043680193DA
:10840400037A8DF80830C3680393054A054B684620
:1084140053F8213052F82110984705B05DF804FB59
:108424001C340020243400201FB503788DF800305C
:108434004368019383688DF80830C3680393054A41
:10844400054B684653F8213052F82110984705B07F
:108454005DF804FB1C34002024340020F0B5194BD3
:108464000678DFF870E043F82620174B94460A6933
:1084740043F826204B7F0EF806300C4607460FCCF7
:1084840089B06D460FC594E80F0085E80F001EF80B
:108494000630049653B1BCF1000F0C4A694608BF7C
:1084A4000022381D00F0F8FD09B0F0BDBCF1000F4A
:1084B400074A694608BF002207F10C0000F0B6FB2A
:1084C400F2E700BF243400201C340020F9830200AA
:1084D4002D8402002C34002000F18040002382B05F
:1084E400036003680193019B02B07047054A137946
:1084F4002BB9012110601171537118467047852002
:10850400704700BF30340020084B1A68D20706D4E5
:10851400E02283F800230122C3F880211A604FF07F
:1085240080430122C3F81825704700BF00E100E032
:10853400044B01221A604FF08042D2F81834DB0356
:10854400FBD470470C000040124B1B6810B573B18C
:108554004FF48070FFF7C0FF4FF080430122C3F84F
:1085640008230D4B587910B95A711B6898470B4B67
:108574001B6873B14FF48270FFF7AEFF4FF0804376
:108584000222C3F80823044B01201B68BDE81040F5
:10859400184710BD000100403034002004010040A1
:1085A40000F1804000F5C040002382B003600368FE
:1085B4000193019B02B0704703681F2B83BF03F034
:1085C4001F03036001484FF0A040704700030050B0
:1085D40007B502AB43F8040D1846FFF7EDFF019B06
:1085E40000EB8300D0F8003723F44033C0F80037A1
:1085F400D0F8003743EA0141C0F8001703B05DF832
:1086040004FB0000054B4FF0FF32072843F82020FD
:1086140084BF1B1883F85820704700BF38340020EB
:1086240010B5174C94F86A3043BBFF21E2180133AC
:10863400302B82F83010F9D10021C8B2FFF7E2FFE5
:1086440001310C29F9D1062200210E4802F0D4FF91
:108654000D4BE02283F806234022C3F880214FF417
:10866400BE701A60FFF79CFF084B4FF00042C3F83E
:108674000423012384F86A30002010BD0820FCE79D
:10868400383400209C34002000E100E00060004009
:10869400034B93F86A00003018BF0120704700BFF5
:1086A40038340020F7B5404F3B18044693F9303076
:1086B400002B944675DA8B78C3F34003002B15BF67
:1086C4000025082508200C20854202D1042003B08F
:1086D400F0BD57F8252001324FEA850649D13819F3
:1086E40047F825C080F8305013B97B1983F85840F7
:1086F4008B785A071BD4D8073DD502A840F8084DFB
:10870400FFF75AFF009B00EB8300D0F8003723F0FB
:108714000203C0F800372548E20804F0070C0123DF
:1087240003FA0CF310F802C043EA0C03835488786C
:1087340091F800C010F002002AD006F1804303F53E
:10874400C0432402D3F8102522F44F3222F440729D
:10875400C3F810254FEA0C4CD3F8102504F47C54CC
:108764000CF4403C44EA0C041443C3F810450020C4
:10877400ADE70135A8E702A84A7840F8044DFFF7B1
:108784001BFF019B03F5E073920040F82320C2E72E
:10879400083D3D4495F8604044EA8C1C85F860C06F
:1087A40095E7082093E700BF383400209C3400206C
:1087B40073B5224C2518064695F93020072A1ADD90
:1087C400224492F858309B09032B10D102A840F898
:1087D400046DFFF7F1FE019AD0F81035D340DB07A2
:1087E40007D402213046FFF7F3FE02B070BD012B1F
:1087F400F7D00321F6E7D3B2072BF6D8930003F1A1
:10880400804303F5C043D3F8100540F00100C3F8DA
:10881400100502F14000800080B2FFF7C1FE00297C
:10882400E3D095F9303054F82330002BDDD0012308
:1088340003FA02F2024BC3F80423D6E738340020CB
:108844000060004007B502AB43F8040D1846FFF77B
:10885400B3FE019BD0F81005D84000F0010003B02E
:108864005DF804FB2DE9F04F002489B0CDE9024402
:108874005F4A604E604D01211368A2F5C040012B90
:1088840080B206D1D6F804330B4202D0FFF788FE3B
:108894000C430432AA424FEA4101EDD1574B1B6805
:1088A400012B0ED14FF4BE70FFF77AFE4FF0A043B8
:1088B40044F00044D3F810350293514BD3F81035EB
:1088C400039314F0FF0F1AD04E4F002501263442B3
:1088D40010D0AB0003F1804303F5C043D3F8100577
:1088E400D3F8101557F82530C0F30520C1F3014122
:1088F40003B198470135082D4FEA4606E7D1002C0D
:1089040072DA04AE0023049373604FF0FF33CDE9B1
:1089140006333C4F4FF0010800252C467B1993F990
:108924006020531C47D0D2B222F0C00908A84FEAF5
:10893400D90300EB030B02F007011BF8080C08FA3B
:1089440001F1084237D007EB0900920990F9300091
:1089540057F820A0BAF1000F05D1032A2BD1F05CFF
:108964000843F05401E0032AF9D001A8CDF804909B
:10897400FFF722FE019B03F5E07350F823301BF848
:10898400180C0842C3F3014305D0022B13D1032A68
:108994000BD1114604E0032B0DD1032A05D102218A
:1089A4004846FFF715FE0134E4B2BAF1000F02D0D5
:1089B40011464846D0470135042DAFD1A4B14FF03C
:1089C400A0430299D3F8102503F540739142D3F8DC
:1089D400103502D10399994206D002920393049A66
:1089E400059B0692079397E709B0BDE8F08F00BF97
:1089F4000061004000600040206100407C61004054
:108A04000003005038340020014B1B68184700BF96
:108A1400A43400200D4B984237B50D4610D102A85E
:108A2400002300F8013DFEF793FE094B1C7914B9AD
:108A340001221D601A719DF80700FEF7ADFE14B9FE
:108A4400002003B030BD1120FBE700BF0020004030
:108A5400A43400200023435082B043580193019B67
:108A640002B070470A4610B54FF48E71FFF7F2FF5B
:108A7400136A9168C95C136A01331362C0F81C1548
:108A840010BD024608B54FF492710068FFF7E2FF8B
:108A94004FF484711068FFF7DDFF136801221A6038
:108AA40008BD8B690A4610B54FF4847123B9FFF7EA
:108AB400D1FFD0F8183510BDFFF7CCFF536AD16849
:108AC400D0F81805C854536A01335362F3E7000021
:108AD4001FB501238DF80030044BCDE90110D3E913
:108AE40000126846904705B05DF804FBAC340020E2
:108AF40030B54C4AD2F8043313F4007F85B01546E0
:108B04004FD0D2F82431002B4BD04FF49271104641
:108B1400FFF7A0FF4FF40173C2F80833424B93F8F8
:108B2400291009B9012151603E4902228DF8002023
:108B3400D1F88024C1F8802403929A690292DA68F9
:108B440001920022C3E906226846D3E90012904745
:108B54003448D0F81C315BB133490A6A4B699A42F4
:108B64000A464BD291F82830002B47D1FFF77AFF01
:108B74002C4AD2F8443193B14FF4A2711046FFF756
:108B840069FF294B93F8291009B1012111609A69F1
:108B94002AB100229A61586AD968FFF799FF05B093
:108BA40030BDD5F804335B07D2D5D5F80831002B96
:108BB400CED01D4C1B482146FFF773FF636AA269A0
:108BC4009A422346C4D1E269E1684AB12369E36069
:108BD4000023606AA261E3616362FFF779FFB7E78C
:108BE40094F829200AB901226A600E4A4FF40170F0
:108BF400C2F8080300229A61586AEEE74FF48E71B6
:108C04000848FFF727FF51690029B1D000230291DA
:108C140091688DF80030019153616846D2E90013E0
:108C24009847A5E700200040AC3400202DE9F84324
:108C3400664B047991462C2202FB0432064692F8D4
:108C44002A200D469846002A40F0BC8060490068FE
:108C5400FFF7E0FE0746002840F0B68029684A1C6A
:108C640010D01F2987BF01F01F035A4A0B464FF04B
:108C7400A0420120984003F5E073C2F808050320E0
:108C840042F823006868431C0DD01F288BBF00F0F6
:108C94001F0303464F4A4FF0A04203F5E0734FF021
:108CA400000C42F823C03368AA6995F814C0C3F8CD
:108CB40024256A7DBCF1010F4CEA0202C3F86C253D
:108CC400C3F81405C3F80C152BD1A968481C0DD0A2
:108CD4001F298BBF01F01F020A463E484FF0A040F7
:108CE40002F5E0724FF0000C40F822C0E868421C24
:108CF40013D01F2887BF00F01F0C364A84464FF05C
:108D0400A0424FF0010E0EFA0CFE0CF5E07CC2F806
:108D140008E54FF0030E42F82CE0C3F80805C3F849
:108D240010152C23634308EB0302C2F804902A694C
:108D340048F80320B9F1000F31D04FF48E71306838
:108D44002D7FFFF787FE30684FF4A271FFF782FE94
:108D54003268214BC2F80433120B53B2002BA8BF64
:108D640003F160404FEA53134FEA4511BABF1B4861
:108D740002F00F0500F561404FEA8303C9B203F125
:108D84006043B4BF415580F8001303F5614302F01A
:108D94001F02012101FA02F2C3F880211A6033682C
:108DA4000422C3F800252C2303FB04830022C3E917
:108DB400062283F829205A61012283F82A203846A2
:108DC400BDE8F8830827FAE71127F8E7AC34002058
:108DD400F58A0200000300508000020014ED00E058
:108DE4002DE9F843224F06794FF02C0909FB06744C
:108DF40080466569002D37D16261A16025624FF418
:108E04008E71006884F82850FFF724FED8F800001B
:108E1400012383602146FFF725FE6368A1462BBB2F
:108E2400D8F80050226A63699A4212D3D8F8003005
:108E3400D3F81C21002AFBD00122DA6000202C2365
:108E440003FB067600237361BDE8F88394F82830A9
:108E540043B9D5F81C31002BF8D049462846FFF712
:108E640001FEDFE70F20EAE71120EDE72846EBE7F4
:108E7400AC3400200379044A2C2101FB03235869F4
:108E8400003018BF01207047AC3400202DE9F843AE
:108E9400384E05792C2303FB056307465C6824B12F
:108EA40003684FF40170C3F808032C2303FB056324
:108EB400986950B1D86900283ED024B13B684FF47A
:108EC4000172C3F80423112034E09A61D960586216
:108ED400D8612C2303FB056393F829301BB910B91F
:108EE4003846FFF7CEFD4FF02C0909FB05683868BA
:108EF400D8F80430002B34D14FF4A271FFF7AAFD47
:108F0400C1463868D0F82431D0F80821D0F844415B
:108F1400B2B90CB9002BF4D02C2202FB0565002257
:108F2400AA611BBB24BB95F829103B680122B1B18F
:108F34001A600020BDE8F8831961DA610120C8E7EE
:108F4400002BE9D1002CE7D14946FFF7AAFDD8F858
:108F54002430D8F818209A42D3D82346DCE75A6044
:108F6400E7E74FF40173C0F80433E2E70320E1E7D5
:108F74000F20DFE7AC3400200023435082B0435875
:108F84000193019B02B070471FB501238DF8003097
:108F9400054B8DF8080001916846D3E9001290470B
:108FA40005B05DF804FB00BFD83400207FB5384A13
:108FB400D2F82461002E49D010464FF49271FFF785
:108FC400DBFF02238DF80030D2F88034C2F88034FD
:108FD4000393D2F83C358DF808302E4BDA680192B1
:108FE4000022C3E906226846D3E900129047284AC2
:108FF400D2F8443173B14FF4A2711046FFF7BCFFAD
:10900400244B996931B100219961D2F83C05D968A2
:10901400FFF7BAFF1E4AD2F82031ABB14FF490717A
:109024001046FFF7A9FF1B4B596969B1D2F84C15DB
:109034008DF80810002299688DF8002001915A617A
:109044006846D3E90012904704B070BDD2F81031DD
:10905400002BCCD04FF488711046FFF78DFF0D4BD9
:10906400D2F83C0599698842C1D1DC69D96864B1F8
:10907400D2F8005225F02005C2F800521A699C610A
:10908400DA60DE61FFF780FFB1E79C61FAE700BFB9
:1090940000200040D83400202DE9F8436A4B0679BB
:1090A4009146242202FB0632044692F820200D4603
:1090B4009846002A40F0C48064490068FFF7AAFC7F
:1090C4000746002840F0BE802868421C10D01F28A4
:1090D40087BF00F01F035E4A03464FF0A042012100
:1090E400994003F5E073C2F80815032142F82310F0
:1090F40069684B1C0DD01F298BBF01F01F030B4661
:10910400534A4FF0A04203F5E0734FF0000C42F8CD
:1091140023C02368AA6995F814C0C3F824256A7D7E
:10912400BCF1010F4CEA0202C3F86C25C3F80C052C
:10913400C3F814152BD1A968481C0DD01F298BBF67
:1091440001F01F020A4642484FF0A04002F5E072C7
:109154004FF0000C40F822C0E868421C13D01F28CE
:1091640087BF00F01F0C3A4A84464FF0A0424FF0EC
:10917400010E0EFA0CFE0CF5E07CC2F808E54FF087
:10918400030E42F82CE0C3F80805C3F81015242395
:10919400734308EB0302C2F804902A6948F80320D9
:1091A400B9F1000F3BD04FF4887120682D7FFFF791
:1091B400E3FE4FF490712068FFF7DEFE4FF49271E6
:1091C4002068FFF7D9FE20684FF4A271FFF7D4FEA0
:1091D4002268204BC2F80433120B53B2002BA8BFF1
:1091E40003F160404FEA53134FEA4511BABF1A48DE
:1091F40002F00F0500F561404FEA8303C9B203F1A1
:109204006043B4BF415580F8001303F5614302F095
:109214001F02012101FA02F2C3F880211A602368B7
:109224000822C3F80025242303FB06830022C3E994
:1092340006225A61012283F820203846BDE8F883CB
:109244000827FAE71127F8E7D8340020B18F020085
:10925400000300501003020014ED00E001F060432D
:10926400B3F1005F2DE9F041074632D11C4B06797A
:10927400242505FB063598466C6964BB6A61A960C0
:1092840000684FF49071FFF777FE4FF4AC713868C3
:10929400FFF772FE3B686A69A968C3F84415C3F80E
:1092A400482501229A606A68BAB9D3F82011D3F824
:1092B400582149B9002AF8D00F20242303FB06863D
:1092C40000237361BDE8F081002A14BF0F20002041
:1092D400F3E71020F6E71120F4E72046F2E700BF99
:1092E400D83400200379044A242101FB032358695C
:1092F400003018BF01207047D8340020F8B501F0C1
:109304006043B3F1005F04460F465ED10379304DEC
:10931400242101FB0351486820B121684FF40476ED
:10932400C1F80863242101FB03539E6956B1D9692E
:10933400002939D020B123684FF40472C3F8042300
:10934400112030E09A61DF60DE614FF4887120689B
:10935400FFF712FE4FF4A2712068FFF70DFE236899
:10936400C3F83475C3F8382516BB01221A60227974
:10937400242101FB0251496809BBD3F81041D3F8F9
:109384004411D3F8240114B909B90028F5D02423D1
:1093940003FB02550023984214BF03201846994248
:1093A400AB6118BF0F20F8BD1F61DA610126CCE75D
:1093B400D3F8002242F02002C3F80022D7E74FF48A
:1093C4000472C3F804230020EDE71020EBE700BF8C
:1093D400D83400201F288ABF094B4FF0A04300F067
:1093E4001F0003EB8000D0F8003723F44033C0F8AB
:1093F4000037D0F8003743EA0141C0F8001770473E
:10940400000300500220FEF703BF00002DE9F047DF
:1094140081460D46FEF72AFF0328044604D8012D91
:1094240004D024D3022D2FD0BDE8F087194D470076
:109434003A18A918AE5C4A7852B1DFF86880164829
:1094440042464FF40041FEF71DF808B988F8009031
:109454003B192B449A78114B1A55002EE4D0104B2B
:109464001B68002BE0D03046BDE8F04718470A4897
:10947400FEF74CF8074B04EB440213449E78074B69
:109484001B5DB342D0D1E8E7024B00EB40041C441F
:109494006678E2E760350020203500207935002029
:1094A40074350020FC34002002210078FFF7AEBFA1
:1094B40008B5094B1B7853B10020FEF777FE012055
:1094C400FEF774FE0320BDE80840FEF76FBEBDE85A
:1094D4000840FEF77FBE00BFFD340020F8B5794C8C
:1094E400237805461BB100232370FFF7E1FF172DF6
:1094F40000F28480DFE805F00C13133F5061727CA6
:1095040084898489919696969696C0C5CDD5E0E0D7
:10951400FFF7CEFF6C4B00241C702046F8BD0020E2
:10952400FEF71CFEF8B10020FEF740FE022D0CBF32
:109534004FF4E1614FF47A61634B1D704FF40040C6
:109544004FF4FA740025E0FB01454FF47A720023CE
:109554002046294601F0B0FE002201465B48BDE8E2
:10956400F840FDF78FBFFEF70DFE022D0CBFC8219A
:109574004FF4C871E0E70020FEF7F0FD40B1002091
:10958400FEF714FE4FF448714F4B03221A70D5E7CF
:10959400FEF7F8FDC821F7E70020FEF7DFFD38B13C
:1095A4000020FEF703FE4FF47A61474B0422EDE7F7
:1095B400FEF7E8FD4FF4C871F7E70020FEF7CEFD93
:1095C40048B10020FEF7F2FD3F4B05221A7041F628
:1095D4009A110022C2E7FEF7D5FDF5E70020FEF759
:1095E40017FE394B06221A70002240F6CD41B5E72A
:1095F4000020FEF7C7FD344B07221A7000248CE7C5
:1096040001202070FEF704FEEEE701202070FEF733
:10961400FFFD00224FF48041A0E7FEF7EAFD2A4B4C
:109624000C22EAE72A482B4EFDF770FFD5F111050D
:1096340004461CD0D8B9012D13D0C8235D434FF480
:1096440000474FF4FA7000214FF47A720023C7FBED
:10965400050101F031FE224601461D48FDF712FFC7
:1096640004460220FEF78EFD0123337055E70220E5
:10967400FEF79CFD0023F8E7FFF71AFF124B1222B6
:10968400BBE7FFF715FF0020FEF77CFD0E4B13220E
:10969400B3E7FFF70DFF0120FEF774FD0A4B142218
:1096A400ABE7FFF705FF0020FEF76CFD0120FEF796
:1096B40069FD054B1522A0E7FEF79BFD024B1D70CB
:1096C4009CE700BF7035002078350020403500202D
:1096D40000350020FD340020044B1B68DB0703D554
:1096E400034B1878FFF7FABE704700BF6C350020B3
:1096F40078350020032801D8FEF7A4BD0020704768
:10970400044B1B6813F0010301D0FFF7E7BE1846B2
:10971400704700BF6C35002038B51C4B18601C4BDB
:1097240010F00204054619601AD01A4B1A480E228A
:109734001A700F22DA7010229A7111225A720421BF
:1097440040F26662FDF770FB044648B9FDF7C0FBC2
:10975400044628B90146114A1148FDF781FE044622
:10976400EB0711D50120FEF799FD6CB921460D4A8E
:109774000D48FDF775FE044630B90C4A0C4801212A
:10978400BDE83840FDF76CBE204638BD6C3500207E
:109794007435002060350020ECC50200AD94020051
:1097A40010C60200DD96020014C6020009940200ED
:1097B4000CC60200032812D8012A0BD1012908D1B2
:1097C40000F10E02D2B200EB40000C4B1A54002000
:1097D400704700220129F6D009D3022901D00720BD
:1097E4007047064B00EB400018444270EFE7034B10
:1097F40000EB400018448270E9E700BF60350020A8
:10980400032808B506D8FEF743FD0321FFF7E2FD60
:10981400002008BD0620FCE708B501220221002033
:10982400FFF7C8FF08B1072810D107220221012041
:10983400FFF7C0FF08B1072808D100210A22084613
:10984400FFF7B8FF10B1072808BF002008BD0000CB
:109854000388102B10B502D0112B1ED010BD1A4C4A
:109864002168B1B901220846FFF7A4FF08B107280F
:1098740024D1072202210120FFF79CFF08B1072809
:109884001CD1042202210020FFF794FF08B107280D
:1098940014D1236801332360E0E70B4A1368013BCA
:1098A4001360002BDAD1FFF7B7FF0028D6D0074B9F
:1098B4001B68002BD2D0BDE810401847034B1B682F
:1098C400002BE6D09847E4E784350020803500205B
:1098D40008B50020FFF794FF08B1062806D101203F
:1098E400FFF78EFF10B1062808BF002008BD000056
:1098F4000D4B10B518600C4629B10120FFF7FAFE94
:1099040040B102232370094B1B6853B9BDE81040D2
:10991400FFF782BFFFF7EEFE08B10B23F2E72070DA
:10992400F1E7002010BD00BF803500208435002001
:1099340075DF704776DF70477FDF70478ADF7047D7
:109944008BDF70478CDF70478FDF704708B5FFF7F8
:10995400F7FF08490848FFF7F1FF08B1FDF7CEFA11
:109964000120FFF7CDFE18B1BDE80840FDF7C6BAE7
:1099740008BD00BF0C2D0020A4C7020010B501468D
:109984000446044801F0ECF921460348BDE81040C0
:1099940001F0A0B89C3600208C36002010B5038856
:1099A4001D2B86B004462ED019D8112B5AD003D8BB
:1099B400102B60D006B010BD132B00F08B801B2B36
:1099C400F8D1037A012B79D14A4B4B49188800040A
:1099D40040F00300FCF7DEFFFFF7B8FFEAE7212BB6
:1099E4007FD007D81F2BE5D100F108018088FFF74D
:1099F4009FFF32E03B2B01D0562BDBD11321A088F3
:109A0400FFF798FF29E0818C3C4A006A00F07AFB5A
:109A140000B301233A4A3B4904F10A00FFF792FFDD
:109A24000028C7D1FFF76CFE08B1FDF767FA31498A
:109A3400237B0888217C0391E17B0291A17B019126
:109A44000004617B0091E27A2F4940F00300FCF7A7
:109A5400B9FFAFE72D49FFF771FF0028AAD0FDF742
:109A64004DFAA7E7234B227A18882949000440F0CD
:109A74000300FCF793FF1F4B26491888000440F0AD
:109A84000300FCF787FF0022A188234801F01BF99B
:109A940008B1FDF733FA0022A188204801F0FAF951
:109AA40008B1FDF72BFA0720FFF72AFE08B1FDF7EE
:109AB40025FAA1881A4800F037FDCEE7022B7FF47F
:109AC40079AF0C4B17491888000440F00300FCF7E9
:109AD40061FF6FE700231A4685218088FFF72CFF7A
:109AE400BBE706A9002321F8043D8088FFF72CFF7B
:109AF400B3E700BFF429002026C70200A0C7020074
:109B040098C70200A4C70200C9C602000C2D002099
:109B1400F7C6020012C702008C3600209C360020D3
:109B2400402A002036C702000A8840F677239A426A
:109B340007D1044B04491888000440F00300FCF7E3
:109B440029BF7047F42900207CC7020038B5037888
:109B5400012B044624D002D3022B14D038BD134C5D
:109B6400134D20882844FDF7B5FD238801339BB2AB
:109B74001D44238015F8012C0A2A01D0FE2BEDD9AF
:109B840000232380EAE70B4B0B491888000440F0BC
:109B94000100FCF7FFFE6068BDE83840FDF7AEB990
:109BA400044B064918880004F1E700BF88360020FA
:109BB40088350020F4290020F8C702002AC80200D2
:109BC40010B504460020FFF79BFD08B1FDF796F998
:109BD40024B9FFF77DFE08B1FDF790F9012010BD0F
:109BE400042808B506D00A2810D10020BDE8084092
:109BF400FEF728B9064B13215888FFF79BFE30F077
:109C0400080303D0BDE80840FDF778B908BD00BFDC
:109C14008C36002038B50B78012B05460C4622D033
:109C2400022B35D10A7A1B490023934216D31A4BCF
:109C3400184A18881949000440F00300FCF7AEFEE6
:109C4400174801F021F808B1FDF758F9144801F05C
:109C54002AF8E8B1BDE83840FDF750B96068C05C47
:109C640058540133E1E70C4B0E491888000440F0C6
:109C74000300FCF78FFE04F10A026188284601F014
:109C840009F908B1FDF73AF9074801F0E1F8E0E70E
:109C940038BD00BFD7360020F429002054C7020085
:109CA4008C36002064C702009C3600202DE9F8435E
:109CB400DFF85080DFF850900746054600242878E6
:109CC400FDF71EFD064668B11128F8D0B8F800006B
:109CD400000440F0010022464946FCF75FFE30468E
:109CE400FDF70CF90134332C05F10105E7D197F8A0
:109CF40032300D2B04D10A20FDF702FD1128F9E7BB
:109D0400BDE8F883F429002056C8020070B50B782A
:109D140090B006460C46032B1AD8DFE803F0021B6A
:109D2400384D2B4D2B492888000440F00300FCF7E4
:109D340031FE221D6188304600F0C5FF08B1FDF7F1
:109D4400DDF828882449000440F00300FCF722FED3
:109D540010B070BD1E4D21492888000440F0030056
:109D6400FCF718FE2888A2881D49000440F003006F
:109D7400FCF714FEA388009342F66F23194A1A498C
:109D840003A801F0EBFB03A8FFF790FFE0E7104DF9
:109D940016492888000440F00300FCF7FBFD2888DE
:109DA400A2880F49000440F00300FCF7F7FDA388E4
:109DB400009342F66E23E1E7054B0D491888000431
:109DC40040F00300FCF7E6FDFFF7C0FDC0E700BF6D
:109DD400F429002030C6020044C6020062C6020014
:109DE40074C60200D736002078C60200A6C6020058
:109DF400BBC6020008B50849084800F017FD08B1C1
:109E0400FDF77CF8F721054800F025FD18B1BDE801
:109E14000840FDF773B808BD2D9B0200A43600204E
:109E240000B54FF400418BB00020FCF7EBFB08B108
:109E3400FDF764F8FCF716FBFDF7E2FA08B1FDF74D
:109E44005DF8374D0FCD04AC0FC495E80300354BD6
:109E5400354A00934FF4807384E80300CDE902236C
:109E64000193324A0723694604A8FDF7DBFB08B1D6
:109E7400FDF744F82E490120FFF74EFC08B1FDF729
:109E84003DF804A90020FFF733FD08B1FDF736F8CB
:109E9400284800F00FFB08B1FDF730F8FDF796FFF6
:109EA40008B1FDF72BF801F049F808B1FDF726F8E1
:109EB400002304A90120049301F0CCF808B1FDF7B4
:109EC4001DF804A801F08EF908B1FDF717F8FFF7A3
:109ED40091FF194B1948049304A900F06EFF08B1CF
:109EE400FDF70CF8164B1748049304A900F04AFE3A
:109EF40008B1FDF703F8144801F010FB134B1449A3
:109F04001888000440F00300FCF744FDFFF71EFD31
:109F1400FCF7DEFB0028FBD1FDF76EFFF8E700BF7E
:109F240018C60200DD360020DD370020519B0200F8
:109F3400E59B020081990200199C02009C360020D6
:109F4400119D02008C360020B2C70200F4290020C3
:109F5400D6C702000369C1688B429DBF8268D218CC
:109F640002F1FF3203F1FF3394BF501A581A7047BD
:109F74002DE9F041D0E902670446F61B4068964299
:109F840088461546384405D901F00DFB3D44E5608B
:109F9400BDE8F0813246AD1B01F005FB2A4608EB13
:109FA4000601606801F0FFFAF1E72DE9F843C5689E
:109FB4000646894617464FF000083469B36870684E
:109FC400A54228BFE418013C621B5C1BBC4228BFAD
:109FD4003C46944228BF144649462844224601F090
:109FE400E2FAB3682544AB4208BF00253F1BA044F6
:109FF400A144F560E1D14046BDE8F88310B5114CA9
:10A00400114AA2610223C4E90433104BE361A26440
:10A014004FF400730E4A2362E264002310220D49B8
:10A02400A362E01D6362E362A3656365E365226581
:10A0340001F015FB0849204601F011FB2023A37110
:10A0440010BD00BFE03800207CC802006839002041
:10A054005839002085C8020089C80200F8B5184C98
:10A06400182300FB033503FB00402544C46A012C7C
:10A074000F46164611D003D3022C1BD000240AE04D
:10A084002846FFF767FF864205D8324639462846F8
:10A09400FFF76EFF34462046F8BD2846FFF75AFF07
:10A0A4008642344628BF0446224639462846FFF7EE
:10A0B4005FFFF0E72846BDE8F840FFF776BF00BF32
:10A0C400E0380020FFF79ABF64DF704770B5C0B175
:10A0D4004AB116880024B44203D305196D789D4211
:10A0E40008D0A14201D800200BE0055D01352C44C5
:10A0F400A4B2F0E7A142F6D9A31C1380005D013895
:10A1040080B270BDF0B587B0002306460D461046F8
:10A11400ADF8063002AA10230DF105018DF80530C3
:10A12400FFF7D2FF16B9002007B0F0BD0028FAD11E
:10A134009DF80530042B06D0102B2DD0022BF3D123
:10A144001C46032301E01C460523BDF806207AB90A
:10A154000DF1060229463046FFF7B8FFBDF8063078
:10A164002BB923460DF106023046FFF7AFFF054633
:10A17400BDF80670002FD6D00024A542D3D9E0192B
:10A184009DF8052002A9304401F091F938B19DF8F9
:10A1940005301C44A4B2F0E706240723D5E70120C8
:10A1A400C2E79BDF70479DDF70479EDF704700006A
:10A1B40030B50C4B0C4A19680023994201D1002098
:10A1C4000CE002EB8304A5788478A54207D132F829
:10A1D40023500488A54202D1044B186830BD0133D2
:10A1E400EBE700BF703B0020783E0020683B002076
:10A1F40070B590F8C63216467622A0B002FB030072
:10A204000D46FFF7D5FF044660B17C22002101A86A
:10A2140001F0F2F901238DF80430ADF806600295DF
:10A2240001A8A04720B070BD2DE9F74F90F8C6B241
:10A234004FF0760A80460BFB0A00CDE90012FFF7C7
:10A24400B7FF814648B3164F3D68052D25D8154CF8
:10A25400019AEE01A0190AFB0B8142805246043098
:10A2640001F0A1F9009B63B10023A35526440135F5
:10A27400C6F87C900C4E3D60326895420DD10025A5
:10A2840006E00223F1E704EBC5100135C36F9847DC
:10A2940033689D42F7D300233B6003B0BDE8F08FE1
:10A2A400743E0020743B0020703B002037B590F8CA
:10A2B400C53290F8C6220C46BBB1013B7621DBB215
:10A2C4005143122505FB031303445B8A0133ADF8A4
:10A2D4000430762303FB020201A91389ADF806308A
:10A2E4002046FFF760FF03B030BD762303FB020373
:10A2F400DB88ECE738B54FF433720D460021044691
:10A3040001F07AF9114AA4F8CA5200231360104AE2
:10A3140084F8C9321268226084F8C63284F8C532DF
:10A32400224601212846FFF73CFF112806D020B918
:10A33400012384F8C73284F8C80238BD012284F8A6
:10A34400C72284F8C8221846F7E700BF743E0020ED
:10A35400783E0020F8B51F4A90F8C93212680133DC
:10A36400DBB2934204460D4680F8C9324FF0000632
:10A374002CD290F8C632184980F8C5620133DBB29A
:10A38400762213FB02F280F8C63251F82330835050
:10A39400124B1349871818883E7100042B46A25AA1
:10A3A40040F00300FCF704FB01213A462846FFF77E
:10A3B400F8FE014648B184F8C7622A462046FFF7F2
:10A3C40017FF084B03221A705D80F8BD80F8C7623E
:10A3D400F7E700BF703B0020783E0020FC290020F6
:10A3E40090C80200743B00202DE9F74F90F8C64254
:10A3F40090F8C562762314FB03F700EB07084FF0CF
:10A40400120C98F804E01CFB0673741C0A337445A0
:10A41400034419D006EBC6056D0044193C4405EB12
:10A4240007090EF1FF3A00271C3406EB070B5FFA0D
:10A434008BF5AE450DD9DA451D891CD1B8F8083025
:10A444009D422AD1002321E01B89B8F808008342E9
:10A4540005D101230B70002003B0BDE8F08F013358
:10A46400ADF80430ADF8060000230B70104601A9C6
:10A47400FFF79BFEF0E70CFB07F309EB030B8344A8
:10A484000135BBF822B05D450DD1234490F8C55287
:10A49400013580F8C5520137C7E70135ADF80450DE
:10A4A400ADF80630E0E70BF1FF3BADF80450ADF832
:10A4B40006B0D9E758B1074A00231360064A0121C0
:10A4C4001170064A1360064A1060184670470E2041
:10A4D400704700BF703B00206C3B0020743E00209E
:10A4E400683B002010B5044680B10C4B1B787BB14F
:10A4F400FFF75EFE70B90A4A1368052B0CD80949A8
:10A50400246841F823400133136010BD0E20FCE79A
:10A514000820FAE70020F8E70420F6E76C3B002067
:10A52400703B0020783E002050B1084A12784AB1AE
:10A53400074A126832B190F8C7322BB9FFF7DABE76
:10A544000E20704708207047112070476C3B002094
:10A55400703B00202DE9F7430C460546C8B1C1B154
:10A564008C4B1B78ABB10388302B35D014D8112B0E
:10A5740000F0008194F8C8325BB12B88303B1F2B6C
:10A5840007D8AB88B4F8CA12994202D12046FFF723
:10A59400B1FE03B0BDE8F083322B42D0332BE9D1B6
:10A5A4008288B1F8CA329342E4D1C68891F8C6C20F
:10A5B40091F8C572002E00F0A280762101FB0C4CAC
:10A5C4007B1C9CF8041000268B428DF8076000F079
:10A5D400C68084F8C53289E08388B1F8CA229A42D9
:10A5E400C8D1C688A6B991F8C632C068762113FBD3
:10A5F40001F3E118E0502B69C1F8063020461146FA
:10A60400FFF754FE01460028B4D084F8C7624BE03B
:10A6140000212046FFF708FEA9882046FFF79AFE8E
:10A62400A8E78288B1F8CA329342A3D1C388002B29
:10A6340059D191F8C602762310FB03F001EB000C0C
:10A64400A97A9CF8043019440629C8BF062100F1F0
:10A654000A0E12208CF8041010FB03E105F10C081B
:10A6640060184FF000099CF804108B4208F10A08A6
:10A6740000F1120022D31220013B00FB0343734478
:10A684001889BCF8083098422DD206292BD084F8BA
:10A69400C51220461146FFF709FE014600283FF483
:10A6A40069AF002384F8C732AA882046FFF7A0FDCB
:10A6B400394B03221A70AA885A805BE74746013354
:10A6C40057F80A1D40F8121C796840F80E1C3989A5
:10A6D40020F80A1C20F8089C20F8069C20F8049C0A
:10A6E40020F8029CBFE7002684F8C5620DF107013B
:10A6F4002046FFF779FE0146002833D085E776230C
:10A7040003FB0CF1122303FB0713B0F80AE0234404
:10A714007645BFF452AFC189A1F52451082908D860
:10A72400DFE801F014170507070707071A008189F6
:10A734009982998A39B1D98A29B1198B19B1598B5E
:10A7440000297FF43AAF01360630E1E78189D982E6
:10A75400EFE781891983ECE781895983E9E70123CC
:10A764008DF807309DF80730002B3FF403AFAA881B
:10A7740001214EE78288B1F8CA329A427FF4FAAED8
:10A78400002381F8C73281F8C8324FF6FF73A1F86D
:10A79400CA32EFE66C3B0020743B002090DF704728
:10A7A400A5DF7047B5DF7047F0B585B00023ADF87D
:10A7B4000810ADF80A106A4602A9074603930093ED
:10A7C400ADF80430FFF7EAFF064618B3134C2588AA
:10A7D400FDF7C6FB2D0445F0010503463A46104932
:10A7E4002846FCF7E5F8BDF80020BDF8023002B9B0
:10A7F40033B120880B49000440F00100FCF7D8F87D
:10A80400BDF8042032B120880749000440F001005B
:10A81400FCF7C4F8304605B0F0BD00BF082A00209C
:10A82400E4C802002EC902006DC9020088B14FF0CD
:10A83400F7130360FB230371F723C38017230381FA
:10A8440041F6FB32002301618372C3728281184690
:10A8540070470E20704730B1A1F11703E02B04D8E4
:10A864004180002070470E20704707207047000089
:10A8740037B5034680880C46A0B91A88232A00F00D
:10A88400AD8011D8102A25D0112A53D0A37A4BB108
:10A89400E1880020FFF784FF002840F0A580012311
:10A8A400A072E37203B030BD3A2A4DD0552A67D066
:10A8B400242AEBD11A7A0B694A73002BE6D04DF6A1
:10A8C4007A21ADF80400ADF80010ADF802008DF85F
:10A8D40004207FE0DB7B0A790A73012B13D0022B5F
:10A8E40014D0E18823898B4205D20020FFF758FF5A
:10A8F40070B90123E372217B637B8B42C6D20020B3
:10A90400FFF752FFC2E70B88E380EAE74B88FBE7D7
:10A91400112802D10123A372EDE73B4B1D88FDF7FB
:10A924001FFB2D0445F00105024638492846FCF773
:10A9340035F8E0E7F723CB8017230B8141F6FB338F
:10A944008872C8728B81A1E75B89CA88934228BF49
:10A954001346172B0A6938BF17230B8162B1C97AD2
:10A9640051B140F67721ADF80010ADF80200ADF812
:10A9740004306946204690470023E372A37285E7BA
:10A98400DB88C988A072172B38BF17238B4228BFD6
:10A994000B462381FFF706FF58B11B4B1D88FDF7BB
:10A9A400DFFA2D0445F00105024619492846FBF754
:10A9B400F5FFE27A002A7FF469AF2369002B3FF4A4
:10A9C40065AF40F67721ADF802202289ADF800107A
:10A9D400ADF8042069462046984757E7197A237B47
:10A9E400994228BF19468BE711283FF45BAF064B09
:10A9F4001C88FDF7B5FA240444F001040246034917
:10AA04002046FBF7CBFF4DE7082A0020C3C902000C
:10AA1400F4C90200A1DF7047A3DF704738B5164CB4
:10AA2400164B22681B689A421AD0154914235343C3
:10AA3400CD18C85AAA78012A13D108331944FFF74C
:10AA4400EBFF104B1B881B0443F0030370B918463B
:10AA54000D49FBF79FFF2368013303F007032360CD
:10AA640038BD0022A988FFF7D5FFEAE71846074951
:10AA7400BDE83840FBF78EBF303F0020343F002054
:10AA8400903E0020002A002038CA02005BCA02005F
:10AA94000E4A38B514680E4D631C03F007031360A7
:10AAA40014226243AB18002459810221D981111D5B
:10AAB4002944196101219C81197219715C71997081
:10AAC400A852FFF7ABFF204638BD00BF343F00203B
:10AAD400903E00202DE9F04F0C4685B005460C222F
:10AAE400002101A800F088FD237893BB6268244903
:10AAF40022F07F428A422CD1217ABDF808E0BDF8C9
:10AB04000AC0BDF80C60BDF80E00122717FB014106
:10AB140022461F46984642F66E2A42F66F2B8A4218
:10AB24001AD1B8F1000F03D0ADF808E0ADF80AC0AF
:10AB34000FB1ADF80C600BB1ADF80E00EB6843B18A
:10AB44006288ADF8062000228DF8042001A9284669
:10AB5400984705B0BDE8F08FB2F80E90D14509D002
:10AB6400D94505D1B2F816E0B2F818C04FF0010883
:10AB74001232D4E70123D68A108B1F46F8E700BFB0
:10AB84001A18010007B50346B8B1B1B1012202A8F1
:10AB94008DF8062041F61A0220F8042D0A68DA60BE
:10ABA4004FF6FF725A8000229A80DA801A815A8105
:10ABB400FFF798FC03B05DF804FB0E20FAE70000F1
:10ABC40030B5054685B00C46002950D000284ED03B
:10ABD4004B884FF6FF72934202D082889A4246D144
:10ABE4002A88382A45D0392A1BD0112A3FD1244B30
:10ABF4002A7A18882349000440F00300FBF7CEFEAC
:10AC0400AA8863889A4232D1E368002B2FD004A922
:10AC1400032201F80C2D4FF6FF72628020469847FC
:10AC240025E0A38883B16A899A420DD1E2685AB1BA
:10AC34000123697C8DF804302B7C43EA0123ADF8B1
:10AC4400083001A920469047238983B16A899A4232
:10AC54000DD1E2685AB10223697C8DF804302B7C53
:10AC640043EA0123ADF8083001A92046904705B016
:10AC740030BDAA889A42FAD1FFF7D0FEF7E700BFA9
:10AC8400002A0020F7C60200034640B140884FF670
:10AC9400FF72904205D0D98819B1FFF7F9BE0E2092
:10ACA400704708207047034648B140884FF6FF724A
:10ACB400904206D0DA8822B15989FFF7E9BE0E2006
:10ACC40070470820704758B141803AB15388C38017
:10ACD40013888380D388438193880381002070473D
:10ACE4000E207047A1DF7047A3DF704738B5164CBC
:10ACF400164B22681B689A421AD0154918235343ED
:10AD0400CD18C85AAA78012A13D10C331944FFF775
:10AD1400EBFF104B1B881B0443F0030370B9184668
:10AD24000D49FBF737FE2368013303F00703236063
:10AD340038BD0022A988FFF7D5FFEAE7184607497E
:10AD4400BDE83840FBF726BEF83F0020FC3F00205A
:10AD5400383F0020F429002038CA02005BCA0200F0
:10AD64007FB50B782BBB4A6822F07F42B2F58C3F4B
:10AD74001FD101228DF804200C7A4A88ADF80620F0
:10AD840012259C4208D905FB0312D689B6F5285F23
:10AD940011D1D38AADF80E3002884FF6FF739A4270
:10ADA40004D0438813B9BDF80E304380436801A929
:10ADB400984704B070BD0133E3E707B598B191B18A
:10ADC40001238DF8063002AB4FF4C05223F8042D52
:10ADD4000A6842604FF6FF7202601846FFF782FB72
:10ADE40003B05DF804FB0E20FAE71FB503460846DE
:10ADF40059B353B31A88362A0BD0382A21D0112AD2
:10AE040023D19A880B889A4204BF4FF6FF730B60D4
:10AE14001BE04A8892B1598991420FD142686AB1C4
:10AE24009988ADF8061002218DF8041003F1100181
:10AE3400DB8902918DF80C3001A99047FFF756FF8A
:10AE440003E00A889B889A42F8D005B05DF804FBB9
:10AE540038B5B8B104884FF6FF739C4214D00B4B3D
:10AE64000B491D6840886A1C02F007021A60182307
:10AE74006B43CA18CC52002490809470FFF736FFBD
:10AE8400204638BD0E20FCE70820FAE7FC3F0020EE
:10AE9400383F002028B101800AB113884380002084
:10AEA40070470E20704710DF7047000013B504464A
:10AEB40009496846FDF720F8019808B902B010BDA9
:10AEC400D0E900312046984718B16846FDF71EF8CE
:10AED400F2E71120F2E700BFB0CA020013B504463E
:10AEE40007496846FDF708F8019B0BB902B010BD8D
:10AEF4002046D3E9002190476846FDF707F8F3E7B9
:10AF0400C8CA02000B4A92F816335B09012B08D910
:10AF1400042B06D0084B996839B94FF480031360A9
:10AF2400704742F20200FBF7E9BF1A6842F480025C
:10AF34001A60704700E100E0EC330020F7B5184FC9
:10AF44003C785CBB174E012520463570FFF7AEFFF9
:10AF5400112820D02046FFF7C1FF134B1868019039
:10AF640002A800F8054DFCF7F3FB104901A8FFF710
:10AF74009AFF0446B0FA80F0400938709DF8030047
:10AF8400FCF70AFC3CB90A4B34701C70FFF7BAFF9B
:10AF94002846FFF7A3FF204603B0F0BD0824FAE7D4
:10AFA4000140002000400020ABCA02001D6F0200D7
:10AFB40002400020014B1878704700BF0140002078
:10AFC40007B508496846FCF797FF019B13B903B01E
:10AFD4005DF804FBD3E9002090476846FCF796FF30
:10AFE400F3E700BFBCCA0200FFF7EABF60DF7047A7
:10AFF40069DF704761DF704730B5114DADF5017DF4
:10B004004FF4FA740DF1020103A8ADF80240FFF702
:10B01400F1FF70B9294601A8FCF76EFF029B002BD3
:10B02400F0D003A8D3E90021904701A8FCF76EFFF4
:10B03400F4E7052801D0FBF761FF0DF5017D30BD74
:10B044004CCD0200024B1B780BB1FFF7D5BF704704
:10B05400034000207FB506460C46002900F0AF806F
:10B06400584B0B600C22002101A800F0C5FA012303
:10B074008DF8063022688DF80460062301A920208B
:10B08400ADF80830FFF7B4FF58B14F4B1D88FCF7FB
:10B0940067FF2D0445F0010502464C492846FBF79D
:10B0A4007DFC0C22002101A800F0A6FA00238DF8F3
:10B0B40005302268012301A940208DF806308DF85F
:10B0C4000730FFF795FF58B13F4B1D88FCF748FF49
:10B0D4002D0445F0010502463D492846FBF75EFC78
:10B0E4000C22002101A800F087FAF72322688DF8CA
:10B0F400046001A92320ADF80630FFF779FF58B1A9
:10B10400314B1D88FCF72CFF2D0445F00105024648
:10B1140030492846FBF742FC0C22002101A800F02C
:10B124006BFA012022688DF8040001A9FFF760FF83
:10B1340058B1254B1D88FCF713FF2D0445F001057C
:10B14400024625492846FBF729FC0C22002101A8C8
:10B1540000F052FA4FF4B0632268019301A9A120D0
:10B16400FFF746FF58B1184B1D88FCF7F9FE2D0474
:10B1740045F00105024619492846FBF70FFC0C224D
:10B18400002101A800F038FA9DF8043022686FF31A
:10B19400000301A9A0208DF80430FFF729FF60B156
:10B1A400094B1C88FCF7DCFE240444F0010402462D
:10B1B4000B492046FBF7F2FB002004B070BD0E20C3
:10B1C400FBE700BFE0290020102A0020DCCA0200AF
:10B1D40022CB02006ECB0200B5CB020001CC0200F0
:10B1E40052CC0200F8B504460768FFF7FFFE236857
:10B1F400BB42054620D91A4E1A493088000440F053
:10B204000200FBF7C7FB30882368174900043A465D
:10B2140040F00200FBF7CCFB4FF080533088D3F8AA
:10B224000C31226811499B0203F1005300049A1A5D
:10B2340040F00200FBF7B2FB25B90D4B01221A7056
:10B244002846F8BD064B28461C88FCF789FE2404D2
:10B2540044F00104024607492046FBF79FFBEFE751
:10B26400102A0020A5CC0200D4CC020005CD020097
:10B27400034000202FCD02004BDF70471FB50D4C5B
:10B2840001A8FFF7F9FF70B9214602A8FCF734FEC4
:10B29400039B002BF4D00198D3E90021904702A826
:10B2A400FCF734FEF4E7052801D0FBF727FE04B0D1
:10B2B40010BD00BF64CD020053EA020C61D02DE939
:10B2C400F04BB3FA83F51E0007BFB2FA82F502FA17
:10B2D40005F403FA05F41646C5F120051EBF22FA4B
:10B2E40005F73C43203556EA044C4FEA144418BF92
:10B2F4000134A3464FF00009C846904271EB030C99
:10B3040039D3094207BFB0FA80F700FA07F6B1FA59
:10B3140081F701FA07F6C7F120071EBF20FA07FCE0
:10B3240046EA0C062037B6FBFBFC7F1B103F07F0F8
:10B334001F04C4F120060CFA04F42CFA06F644BFE8
:10B3440034460026202FA4BF2646002454EA060CC7
:10B3540008BF012418EB040849EB0609A4FB027C8E
:10B36400C01B06FB02CC04FB03CC71EB0C01904226
:10B3740071EB030CC5D20B46024649464046BDE874
:10B38400F08BB2FBF3F200007F2805D8034B185C66
:10B39400034B5B5C18407047002070477CCD020073
:10B3A400FCCD0200A0F16103192B98BF203870472F
:10B3B400A0F14103192B98BF203070477F2805D88E
:10B3C400034B185C034B5B5C1840704700207047CC
:10B3D4007CCD0200FCCD0200A0F16103192B98BFC3
:10B3E40020387047A0F14103192B98BF20307047D3
:10B3F4007F299ABF017001206FF02E0070475AB167
:10B404000A787F2A0AD800B10260002119605960C5
:10B41400501A18BF01207047002070476FF02E00AB
:10B42400704738B504460846A26842B1236861688B
:10B434005D1C8D4208BF00208B4208D2D054E368C3
:10B444002BB121686268914201D221469847236852
:10B454000133236038BD70B54C1E09D41646C5B2FD
:10B4640029463046FFF7DDFF013CB4F1FF3FF7D139
:10B4740070BD10F0100F09D108B500F40070002859
:10B4840014BF30202020FFF7E6FF08BD70470000FE
:10B4940008B5034B5B689B681B68984708BD00BFF1
:10B4A400142D002008B50921FFF7F2FF08BD92B35F
:10B4B40070B4134640EA010212F0030F17D05A1E6B
:10B4C40010D004780B789C420CD1431C4C1C0244D1
:10B4D40018462146934205D00133013406780D788D
:10B4E400AE42F5D000780B78C01A70BC70470F2BB1
:10B4F400E5D904680A689442E1D1041D0A1D204676
:10B504001146043B042BDAD90434043206680D686E
:10B51400AE42F4D0D3E70020704700000FB410B55A
:10B5240086B008AB53F8044B0593002303936FF0E4
:10B5340000430293084B049300F0E3F8059A214674
:10B5440001A800F0E1F8044600F0DCF8204606B05B
:10B55400BDE8104004B07047797F02000EB400B516
:10B5640086B007AA52F8041B0592039000230493A3
:10B574006FF00043029301A800F0C6F806B05DF82E
:10B5840004EB03B0704703784BB151B10144034657
:10B5940013F8012F0AB18B42FAD1181A70470346E7
:10B5A400FBE70346F9E7844640EA010313F0030F7F
:10B5B40018D18446202A0BD32DE9F007B1E8F80707
:10B5C400A0E8F807A2F12002202AF7D2BDE8F0078C
:10B5D400042A07D351F8043B40F8043BA2F10402C7
:10B5E400042AF7D2002A05D011F8013B00F8013BE8
:10B5F400013AF9D1604670478446002A2DD010F0F4
:10B60400030F04D000F8011B013A26D0F7E7C9B2B2
:10B6140041EA012141EA0141202A12D3A2F1200288
:10B624002DE9F0030B460C460D460E460F468846A0
:10B634008946A0E8FA03203AFBD2BDE8F0032032A1
:10B644000BD0042A05D340F8041B043A05D0042A7D
:10B65400F9D200F8011B013AFBD16046704702465B
:10B6640010F0030F16D111F0030F13D12DE9F000E0
:10B674004FF001374FF0803351F8044BA4EB07052A
:10B6840025EA04051D4002D142F8044BF4E7A1F178
:10B694000401F0BC11F8013B02F8013B002BF9D185
:10B6A400704700F1010110F0030F11D010F8012BC5
:10B6B400002A23D010F0030F0AD010F8012B002A1F
:10B6C4001CD010F0030F03D010F8012B002A15D062
:10B6D4002DE970004FF001324FF0803350F8044BE5
:10B6E400A4EB020525EA04051D4000D1F6E7A0F10C
:10B6F400040070BC10F8012B002AFBD1A0EB010060
:10B7040070477047704700002DE9F04F89B08046BC
:10B714000F46039200230360DFF81CA680E3002594
:10B7240002E045F040052646344614F8010BA0F12A
:10B7340020033E2B00F2948001A252F823F000BFB4
:10B7440027B7020065B8020065B8020041B80200DC
:10B7540065B8020065B8020065B8020047B8020087
:10B7640065B8020065B8020065B8020053B802006B
:10B7740065B8020059B8020065B8020065B8020055
:10B784005FB8020065B8020065B8020065B802003F
:10B7940065B8020065B8020065B8020065B8020029
:10B7A40065B8020065B8020065B8020065B8020019
:10B7B40065B8020065B8020065B8020065B8020009
:10B7C40065B8020065B8020065B8020065B80200F9
:10B7D40065B8020065B8020065B8020065B80200E9
:10B7E40065B8020065B8020065B8020065B80200D9
:10B7F40065B8020065B8020065B8020065B80200C9
:10B8040065B8020065B8020065B8020065B80200B8
:10B8140065B8020065B8020065B8020065B80200A8
:10B8240065B8020065B8020065B8020065B8020098
:10B8340065B8020065B802004DB8020045F0800505
:10B8440071E745F400456EE745F480556BE745F034
:10B85400200568E745F0100565E745F4007562E7E3
:10B864002A2814D0A0F13003DBB2092B0DD8002113
:10B8740001EB8101303800EB410114F8010BA0F118
:10B884003003DBB2092BF3D90CE000210AE0039B5F
:10B894001A1D039219680029BCBF494245F01005DE
:10B8A400B41C707821EAE1762E280FD00021742888
:10B8B40030D07A282ED06C2800F0AC804C2800F0D0
:10B8C400AE80682800F0BB80274625E020782A282F
:10B8D40015D00134A0F13003DBB2092B0DD80021BF
:10B8E40001EB8101303800EB410114F8010BA0F1A8
:10B8F4003003DBB2092BF3D907E0002107E0039BF7
:10B904001A1D03921968607802340029CFDB45F4CC
:10B914008075CCE7671C2078782800F29C80DFE8EB
:10B9240010F05C029A009A009A009A009A009A0019
:10B934009A009A009A009A009A009A009A009A0033
:10B944009A009A009A009A009A009A009A009A0023
:10B954009A009A009A009A009A009A009A009A0013
:10B964009A009A009A009A009A009A009C009A0001
:10B974009A009A009A009A009A009A009A009A00F3
:10B984009A009A009A009A009A009A009A009A00E3
:10B994009A009A009A009A009A009A009A009A00D3
:10B9A4009A009A009A009A009A009A009A009A00C3
:10B9B4009A009A009A009A009A009A009A009A00B3
:10B9C4009A009A009A009A009A009A009A009A00A3
:10B9D4009A000A019A009A009A009A009A009A0022
:10B9E4009A009A009A009A00A10047019A009A00CE
:10B9F4009A009A0047019A009A009A009A00BA00A5
:10BA04003401F3009A009A00CD009A0040019A0094
:10BA14009A000C01671C207845F001057CE745F08D
:10BA24000105C14B1F68002F00F0C58103AB0193D2
:10BA3400009133462A464146B8472746F0E120782C
:10BA4400682803D0671C45F0040565E745F0080540
:10BA5400A71C607860E73C46E3E725214046FFF7F2
:10BA6400E0FCDDE1039B1A1D03921C78013E424673
:10BA740031462846FFF7FDFC21464046FFF7D1FC3E
:10BA8400A94619F0100F00F0CB8142463146202020
:10BA9400FFF7E1FCC4E115F0080F07D0D8F8002047
:10BAA400039B191D03911B681A70B9E1039B1A1DAE
:10BAB40003921B68D8F800201A60B1E1039B1A1D99
:10BAC40003921868994B002808BF1846044625F4C9
